:10000000D8040020F1000000ED000000ED00000029
:1000100000000000000000000000000000000000E0
:10002000000000000000000000000000ED000000E3
:100030000000000000000000ED000000ED000000E6
:10004000ED000000ED000000ED000000ED000000FC
:10005000ED000000ED000000ED000000ED000000EC
:10006000ED000000ED000000ED000000ED000000DC
:10007000ED000000ED000000ED000000ED000000CC
:10008000ED000000ED000000ED00000010B5064C92
:100090002378002B07D1054B002B02D0044800E049
:1000A00000BF0123237010BD70000020000000007D
:1000B000101D0000084B10B5002B03D0074908485D
:1000C00000E000BF07480368002B00D110BD064BBD
:1000D000002BFBD09847F9E70000000074000020D7
:1000E000101D0000101D000000000000FEE70000D1
:1000F0002148224970B5884204D00023204CCA18F8
:10010000A24232D300211F4B1F4A934231D3FF2119
:100110001E4B1F4A8B43936002220C250824302675
:100120001C4B1D485A62C378FC398B431343C37080
:10013000C378AB432343C370184B987BB04306008E
:10014000202030439873987BA84304439C73987B8A
:10015000884302439A738023114A51680B435360CA
:1001600000F0A0FF00F018F9FEE7C5580433156051
:10017000C5E702C3C9E7C046101D0000000000200B
:100180007000002070000020D4000020000000005B
:1001900000ED00E0FC7000410050004100480041CB
:1001A00000400041044B013B002B04D0C046C04638
:1001B000C046C046F7E7704751C3000010B507229C
:1001C0001C21024800F012F910BDC0468C0000202E
:1001D000F8B56B4C6B49200000F064FB6A4D6B4F27
:1001E0002B686B4E01333B2B00DD8BE02B606949A4
:1001F000200000F057FB0021200000F050FA0622FA
:100200000021200000F049FB0021200000F048FB05
:1002100006220021200000F040FB30680A2100F097
:100220007BFC0A2100F05EFD3031C9B2200000F0F5
:10023000E5FA06222000110000F02FFB30680A21A9
:1002400000F050FD3031C9B2200000F0D7FA2E681E
:1002500001252E4067D02B002A000D21200000F040
:10026000A4F82B0004220D21200000F09EF82B00A2
:1002700002220E21200000F098F82B0005220E210A
:10028000200000F092F8002302220D21200000F04F
:100290008CF8002305220D21200000F086F80023B1
:1002A0002A000E21200000F080F800232000042204
:1002B0000E2100F07AF8062220000F2100F0EDFA5E
:1002C00038680A2100F028FC0A2100F00BFD3031CB
:1002D0002000C9B200F092FA06222000152100F099
:1002E000DCFA38680A2100F0FDFC3031C9B2200088
:1002F00000F084FA200000F0CFF8FFF753FFFFF77B
:1003000051FFF8BD00223B682A6001333B2B01DC22
:100310003B606CE733683A600133182B01DC3360D3
:1003200065E7326063E733002A000D21200000F00A
:100330003CF8330004220D21200000F036F8330091
:1003400002220E21200000F030F8330005220E2199
:10035000200000F02AF82B0002220D21200000F0DE
:1003600024F82B0005220D21200000F01EF82B00A0
:100370002A000E21200000F018F82B0096E7C04656
:100380008C000020841B0000C80000200400002016
:1003900000000020781B000010B5FFF719FFFFF7E1
:1003A00001FFFAE7383001707047F8B507000E001A
:1003B00014001D00002912DB00F083FA86420EDAD9
:1003C000002C0CDB380000F07FFA844207DABE19FB
:1003D0000123002D04D0A340327F13433377F8BDAF
:1003E000A340327F9A433277F9E7000010B504004A
:1003F00012B209B200F062F9184B002208332360F0
:100400002300022138331A70154A164B117001224D
:1004100015490A708021C9039960802109059960F6
:10042000996108231149086A03430B621049114B73
:100430005980114B19681143196019681142FCD198
:100440000E4A20001A600E4A9A81802252025A6097
:10045000022219680A431A6010BDC046A81B00009A
:100460003B44004100440041564400410004004028
:100470000F400000000C0040000C0042040010403F
:10048000ADD8FFFF034B80B218851A7ED207FCD58A
:100490007047C046000C004270B505008020FFF791
:1004A000F1FF8320FFF7EEFF2C00FF20FFF7EAFFAC
:1004B0007F261C343835AC4208D02B782078002BAE
:1004C00000D07040FFF7DEFF0134F4E78F20FFF724
:1004D000D9FF70BDF0B58BB0009310AB0027DF5F84
:1004E00011AB1B880190B81A15000C00039300F0A3
:1004F00071FD49004B080593009B0690181B00F006
:1005000069FD49004B0804930790069A059B0798DC
:10051000049900F003FC002805D0009B00971F0001
:1005200023002C001D00009B9C4205DD2B003D009C
:100530001F002300009C0093009B781B1B1B9BB299
:10054000029300F047FD49004B08190000F00EFD32
:1005500003B209936B4608229B5EFA0FDE0FF61872
:10056000EB17BD42534101225B421A4376100892B9
:10057000009B9C4221DC059B069A0798049900F099
:10058000CDFB019B1B681F68039B002812D0220033
:1005900029000198B847099BF61AB3B21EB2002E83
:1005A00005DA089AAD18029A2DB2D3181EB201349A
:1005B00024B2DDE72A002100EBE70BB0F0BDF0B577
:1005C000150004000E0087B004930CAB00229B5E64
:1005D00005930DAB1B880393039A03680092DF68B1
:1005E0002A00049BB847059B03995A1E2368009173
:1005F0005219DF683100049B200012B2B847039AF9
:10060000236800929F682A00059B31002000B847AC
:100610000499039A23680139009289199F6809B2E5
:10062000059B2A002000B84707B0F0BD37B5013B55
:1006300006AC25889B1804681BB20195009364687A
:100640000B00A04737BD37B506AC2588013B0468D1
:1006500001955B1800921BB26468A04737BDF0B5E6
:1006600005000E000C0087B003930CAB0292002231
:100670009B5E04930DAB1B880593039BF3189C4270
:100680000BDA059A2B6800929F682100049B029A5E
:1006900028000134B84724B2EFE707B0F0BD13B526
:1006A00001910A24015F0822835E02680091546967
:1006B00000221100A04713BD704700000A4B818043
:1006C0000833018101210360C2800023428101229D
:1006D000494243758381C3810275418201828275DB
:1006E000C37583617047C046EC1B0000F0B595B040
:1006F00013921AAA128805000A921CAA1778826916
:100700000991002A78D0117A5B1ADBB25168DB00BC
:1007100012685B180D921A8803929A780E92DA7812
:100720000F9205229A569B7906925BB20793012F8E
:1007300007DD6B4618229B5E0B936B461C229B5E6B
:100740000C9300231C0005930F9B9C4254DABBB210
:100750004C2211936B469B181B88BAB208930C9BD2
:10076000E3185343089AD3181BB21293059B059ABA
:10077000991A0E9AC9B291423ADA5A1CD2B2109220
:100780000722134207D1039B03980D9A0133125C91
:100790009BB204920393049B1B0611D5012F15D124
:1007A000089B079A09989A18069B12191B18591842
:1007B0002B6812B21B6809B21E0028000A9BB047C2
:1007C000049B5B00DBB20493109BD0E70B9A0A9862
:1007D0005118119A3BB25143099A019089182A681D
:1007E0000093526909B216002800129AB047E7E751
:1007F0000134E4B20593A7E715B0F0BDF0B50B00E6
:10080000816985B00400002909D00A2B09D1002391
:1008100083818A7A037D5343C2899B18C38105B0C3
:10082000F0BD0D2BFBD00D7AAB42F8DB4A7A934238
:10083000F5DC5D1BEDB24A68ED00AD18AE78002E18
:1008400024D0EA78002A21D0827D007D002A11D0B0
:100850000522AA56921942430C27E65F92190827EF
:10086000E65FB24206DB0022A2818A7AE189424336
:100870005218E2810290608A0E21625E0190208A05
:100880000C26A15F00902000FFF730FF2B79227D1E
:100890005343A2899B18A381C1E78181C28170471C
:1008A000817570478369002906D0002B02D1C38966
:1008B0000633C38181617047002BFBD0C389063B9F
:1008C000F7E70823C05E70470A23C05E704710B583
:1008D00000F004F810B5804700F0DCFB024B10B5C7
:1008E0001868FFF7F7FFC0460800002010B50400A5
:1008F000034B0833036000F09BF8200010BDC04696
:100900004C1C000010B50400FFF7F0FF20000C2184
:1009100000F0F9F8200010BDF7B51C00089B060098
:100920000F001500934206D1210000F0D6F80028F0
:1009300001D00620FEBDB068089A036800921E6AC6
:100940002A0023003900B047F4E7F0B50C0087B067
:1009500019000593070004920F9E00F0BEF80C9B4F
:10096000051E17D033606B461B7C3371002C0BDBEC
:100970000C9B0E9A1C190623A24200D0053B0025B1
:10098000B371280007B0F0BD0025A31CF9D10123E5
:10099000B371F6E70E9A934205D10D99380000F035
:1009A0009CF800280FD1B8680E9A036802920D9A3D
:1009B000039601920C9A21000092DD69049A059B2E
:1009C000A8470500DDE76B461B7C7371D9E7F8B5D6
:1009D00007000C0015001E0000F040F8002806D1AA
:1009E000B8682A00036821009F693300B847F8BD42
:1009F0007FB500246B461C71102302930368150019
:100A00009E6912686B4600940394B0476B460622B9
:100A10001B7920001340934202D1009B01302B60D0
:100A200004B070BD009B0620934200D0053870478B
:100A300010B50400034B0833036000F04BF82000AE
:100A400010BDC046A81C000010B50400FFF7F0FF61
:100A50002000082100F057F8200010BD70B51500E7
:100A60001C0000F03AF8002804D00823E360023BA1
:100A70002560237170BDF8B505000C0016001F003D
:100A800000F02BF8002807D1032F05D82368320087
:100A90005B69290020009847F8BDF8B514001F00D5
:100AA000089A069B0500099E934204D1079900F01D
:100AB00014F800280CD13900280000F00EF80028A6
:100AC00004D0069B347133600123B3710020F8BD5C
:100AD0007471FBE770470020704710B50123814215
:100AE0000FD04068002302782A2A0AD049680B7880
:100AF0002A3B5A425341C91800F096FB43424341F6
:100B0000DBB2180010BD10B500F001F810BD10B533
:100B100000F0ECFA10BD000003460B437FD4002226
:100B200043088B4274D303098B425FD3030A8B4281
:100B300044D3030B8B4228D3030C8B420DD3FF22EB
:100B4000090212BA030C8B4202D31212090265D0B9
:100B5000030B8B4219D300E0090AC30B8B4201D36C
:100B6000CB03C01A5241830B8B4201D38B03C01AB3
:100B70005241430B8B4201D34B03C01A5241030B2A
:100B80008B4201D30B03C01A5241C30A8B4201D3DB
:100B9000CB02C01A5241830A8B4201D38B02C01A86
:100BA0005241430A8B4201D34B02C01A5241030AFD
:100BB0008B4201D30B02C01A5241CDD2C3098B42E2
:100BC00001D3CB01C01A524183098B4201D38B015F
:100BD000C01A524143098B4201D34B01C01A524102
:100BE00003098B4201D30B01C01A5241C3088B4247
:100BF00001D3CB00C01A524183088B4201D38B0032
:100C0000C01A524143088B4201D34B00C01A5241D3
:100C1000411A00D201465241104670475DE0CA0FAA
:100C200000D04942031000D34042534000229C466A
:100C300003098B422DD3030A8B4212D3FC22890174
:100C400012BA030A8B420CD3890192118B4208D34A
:100C5000890192118B4204D389013AD0921100E0AC
:100C60008909C3098B4201D3CB01C01A52418309C0
:100C70008B4201D38B01C01A524143098B4201D3ED
:100C80004B01C01A524103098B4201D30B01C01A18
:100C90005241C3088B4201D3CB00C01A5241830892
:100CA0008B4201D38B00C01A5241D9D243088B42E8
:100CB00001D34B00C01A5241411A00D2014663468B
:100CC00052415B10104601D34042002B00D54942EF
:100CD000704763465B1000D3404201B5002000F02E
:100CE00005F802BD0029F8D016E770477047C046E6
:100CF0008446101C62468C46191C634600E0C046C0
:100D00001FB500F0D1F8002801D40021C8421FBD52
:100D100010B500F02BF84042013010BD10B500F0C6
:100D2000C3F8002801DB002010BD012010BDC04623
:100D300010B500F0B9F8002801DD002010BD012039
:100D400010BDC04610B500F04BF8002801DC0020B3
:100D500010BD012010BDC04610B500F041F80028BC
:100D600001DA002010BD012010BDC046F0B54F468D
:100D70004646D6465C00C0B51F03DB0F9A46174BAC
:100D80000E034D0084468046360B6D0DC90F91460B
:100D90003F0B640D01209D4208D09C4201D0A5422A
:100DA0000BD01CBC90469946A246F0BD6346334327
:100DB000F7D1AC42F5D13A43F3D10120BE42F0D194
:100DC000C845EED1514507D0002DEAD163461E43F8
:100DD0003000461EB041E4E70020E2E7FF070000D4
:100DE000F0B54546DE4657464E46E0B51F033D0B7F
:100DF0002C4F0E034C00AB465D008446360B640D51
:100E0000C90F90466D0DDB0FBC422AD0254FBD4265
:100E10002DD0002C0FD13043070081467842784115
:100E2000C0B2002D17D15F463A4314D14B46002083
:100E3000002B0AD006E0002D02D15846024301D013
:100E4000994218D04842012108433CBC904699463B
:100E5000A246AB46F0BD0028F2D00120013B18436A
:100E6000F3E737000743D1D002204042EDE75F4669
:100E70001743CED0F8E7AC42E4DC03DA481E012188
:100E80000843E2E75E45DDD806D000205E45DCD2AF
:100E90000123481E1843D8E7C445D3D80020C445D1
:100EA000F6D3D2E7FF070000F0B54E464546DE46D2
:100EB00057465C00E0B51F03DB0F99462A4B0E0333
:100EC0004D00C90F8446360B6D0D8B4690463F0B87
:100ED000640D9D4220D0244B9C4222D0002D12D183
:100EE000304343424341DBB2002C1FD0002B0CD0D7
:100EF0004B460120013B034318003CBC90469946F9
:100F0000A246AB46F0BD002C16D0CB4517D05B46B1
:100F1000594201230B43EFE7310002230143EBD198
:100F2000D9E7390002231143E6D1D7E73A43DDD1AF
:100F300000230028E0D0EAE73A43E6D1E7E7A542FC
:100F4000E5DC05DBBE42E2D807D00023BE42D3D2A7
:100F50005946012301390B43CEE7C445D7D80023B6
:100F6000C445F5D3C8E7C046FF07000030B5134DB0
:100F70000A034B00120B5B0DC90F0024AB4210DDBE
:100F80000F4CA3420FDC80240E4D64032243ED1A64
:100F90001F2D0BDD0C48C31ADA405442002900D142
:100FA0001400200030BD094BCC18FAE7084CE8408B
:100FB000A44663449A400243EFE7C046FE030000A4
:100FC0001D0400003304000013040000FFFFFF7F36
:100FD000EDFBFFFF70B5002830D0C317C4185C408C
:100FE000C50F200000F038F8174B184A1B1AD21A08
:100FF0001F2A18DD164AD21A9440002224035B05EA
:10100000240B5B0D0021100024030A0D240B120594
:101010002243104C1B05224013435B00ED075B0885
:101020002B43190070BD210091400A000B21081AC2
:10103000C4405B052403240B5B0DE3E7002500237C
:1010400000240022DEE7C0461E0400003304000036
:1010500013040000FFFF0F801C2101231B04984292
:1010600001D3000C10391B0A984201D3000A083939
:101070001B09984201D30009043902A2105C4018F0
:101080007047C04604030202010101010000000094
:101090000000000010B5062000F0A6F8012000F0C6
:1010A000DFF8000070B500260C4D0D4C641BA41039
:1010B000A64209D1002600F019FE0A4D0A4C641B15
:1010C000A410A64205D170BDB300EB589847013675
:1010D000EEE7B300EB5898470136F2E7F81C000042
:1010E000F81C0000F81C0000001D000010B5034BA8
:1010F0000100186800F004F810BDC0460C00002084
:1011000070B50500002910D00C1F2368002B00DAF1
:10111000E418280000F092F81D4A1368002B05D14E
:1011200063601460280000F08AF870BDA34209D9FA
:10113000216860188342F3D118685B684118216008
:10114000EEE713005A68002A01D0A242F9D91968C3
:101150005818A0420BD1206809185818196082420B
:10116000E0D110685268411819605A60DAE7A0426D
:1011700002D90C232B60D5E721686018824203D185
:10118000106852684118216062605C60CAE7C0461E
:10119000CC00002070B504000D001F2904D91623CF
:1011A00003600120404270BD436C002B04D08A00D4
:1011B0009B181A68002A08D1200000F031F82A0094
:1011C0000100200000F01AF8EDE70020012AEAD023
:1011D000511C03D1162301302360E4E700242800CA
:1011E0001C6090472000DEE710B5034B0100186833
:1011F000FFF7D0FF10BDC0460C000020002370B5E3
:10120000064C050008001100236000F021F8431C83
:1012100003D12368002B00D02B6070BDD0000020CC
:1012200010B500F00DF810BD02780B78002A03D03D
:10123000013001319A42F7D0D01A70477047704799
:1012400058220120014B40421A607047D000002014
:1012500058220120014B40421A607047D000002004
:10126000FEE7C046000008010200FB00010008057F
:101270000200FB00060008020400FB00080008054D
:101280000400FB000D0008050400FB001200080527
:101290000400FB00170008050400FB001C00080206
:1012A0000200FB001E0008050300FB0023000805E8
:1012B0000300FB00280008030400FB002B000803C8
:1012C0000400FC002E0008020300FE0030000801AC
:1012D0000400FD00310008010200FF003200080593
:1012E0000400FB00370008050400FB003C00080573
:1012F0000300FB00410008050400FB004600080550
:101300000400FB004B0008050400FB00500008052A
:101310000400FB00550008050400FB005A00080506
:101320000400FB005F0008050400FB0064000805E2
:101330000400FB00690008030200FC006C000804C4
:101340000300FC00700008050400FB0075000803A2
:101350000400FC00780008050400FB007D0008057F
:101360000400FB00820008050400FB00870008055C
:101370000400FB008C0008050400FB009100080538
:101380000400FB00960008050400FB009B00080514
:101390000400FB00A00008050400FB00A5000805F0
:1013A0000400FB00AA0008050400FB00AF000805CC
:1013B0000400FB00B40008050400FB00B9000805A8
:1013C0000400FB00BE0008050400FB00C300080584
:1013D0000400FB00C80008050400FB00CD00080560
:1013E0000400FB00D20008050400FB00D70008053C
:1013F0000400FB00DC0008050400FB00E100080518
:101400000400FB00E60008050400FB00EB000805F3
:101410000400FB00F00008050400FB00F5000805CF
:101420000400FB00FA0008050400FB00FF000805AB
:101430000400FB00040108050400FB000901080585
:101440000400FB000E0108030400FC001101080564
:101450000400FB00160108020400FB00180108014B
:101460000400FF00190108020300FB001B0108042F
:101470000400FC001F0108050400FB00240108040F
:101480000400FC00280108050400FB002D010804ED
:101490000400FC00310108050400FB0036010805CA
:1014A0000400FC003B0108050400FB0040010805A6
:1014B0000200FB00450108060400FB004B01080583
:1014C0000400FB00500108050400FB00550108045E
:1014D0000400FC00590108040400FC005D0108043C
:1014E0000400FC00610108050400FC006601080519
:1014F0000400FC006B0108040400FC006F010804F8
:101500000400FC00730108050400FB0078010804D6
:101510000400FC007C0108040400FC0080010804B5
:101520000400FC00840108040400FC008801080594
:101530000400FC008D0108040400FC009101080572
:101540000400FB00960108050200FB009B01080552
:101550000400FB00A00108020400FB000080808062
:101560000080A0A0A0E0A0E0A060C060C0408020FB
:10157000408020C0C0E0A0608080408080804080AB
:1015800040404080A040A040E0404080E0802020DB
:1015900040808060A0A0A0C040C0404040C020402B
:1015A00080E0C0204020C0A0A0E02020E080C0203B
:1015B000C06080E0A0E0E020408080E0A0E0A0E00B
:1015C000E0A0E020C08000804000408020408040BB
:1015D00020E000E08040204080E02040004040A02B
:1015E000E0806040A0E0A0A0C0A0C0A0C06080805B
:1015F0008060C0A0A0A0C0E080E080E0E080E0804B
:10160000806080E0A060A0A0E0A0A0E0404040E0BA
:10161000202020A040A0A0C0A0A080808080E0A0CA
:10162000E0E0A0A0A0E0E0E0A040A0A0A040C0A01A
:10163000C0808040A0A0E060C0A0E0C0A06080406A
:1016400020C0E040404040A0A0A0A060A0A0A040DA
:1016500040A0A0E0E0A0A0A040A0A0A0A0404040EA
:10166000E0204080E0E0808080E0804020E020209A
:1016700020E040A0E08040C060A0E080C0A0A0C00A
:10168000608080602060A0A06060A0C0602040E01A
:10169000404060A0E0204080C0A0A0A080008080EA
:1016A0008020002020A04080A0C0C0A0C0404040BA
:1016B000E0E0E0E0A0C0A0A0A040A0A040C0A0A0AA
:1016C000C08060A0A060206080808060C060C0405A
:1016D000E0404060A0A0A060A0A0E040A0E0E0E06A
:1016E000A04040A0A0A0602040E060C0E06040803A
:1016F00040608080008080C0402040C060C000000A
:10170000000006000100000001070603FA000100C6
:1017100003030602FA00030005070601FA000800A9
:1017200005070601FA000D0005070601FA00120080
:1017300005070601FA00170001030603FA00180066
:1017400003070601FA001B0003070603FA001E0048
:1017500005070601FA00230005050601FB00270026
:1017600002030602FE00280005010601FD00290013
:101770000101060300002A0005050601FB002E00FA
:1017800005070601FA00330003070602FA003600D7
:1017900005070601FA003B0005070601FA004000B4
:1017A00005070601FA00450005070601FA004A0090
:1017B00005070601FA004F0005070601FA0054006C
:1017C00005070601FA00590005070601FA005E0048
:1017D00001030603FC005F0002050602FC00610035
:1017E00004070601FA00650005030601FC00670016
:1017F00004070602FA006B0005070601FA007000F4
:1018000005070601FA00750005070601FA007A00CF
:1018100005070601FA007F0005070601FA008400AB
:1018200005070601FA00890005070601FA008E0087
:1018300005070601FA00930005070601FA00980063
:1018400005070601FA009D0003070602FA00A00042
:1018500005070601FA00A50005070601FA00AA001F
:1018600005070601FA00AF0005070601FA00B400FB
:1018700005070601FA00B90005070601FA00BE00D7
:1018800005070601FA00C30005070601FA00C800B3
:1018900005070601FA00CD0005070601FA00D2008F
:1018A00005070601FA00D70005070601FA00DC006B
:1018B00005070601FA00E10005070601FA00E60047
:1018C00005070601FA00EB0005070601FA00F00023
:1018D00005070601FA00F50005070601FA00FA00FF
:1018E00005050601FB00FE0005070601FA000301DD
:1018F00005030601FC0005010701060001000601C1
:1019000003030602FA00080105050601FC000C01AC
:1019100005070601FA00110105050601FC00150185
:1019200005070601FA001A0105050601FC001E0163
:1019300005070601FA00230105060601FC00270140
:1019400005070601FA002C0103070602FA002F0121
:1019500004080601FA00330105070601FA00380100
:1019600003070602FA003B0105050601FC003F01E2
:1019700005050601FC00430105050601FC004701C1
:1019800005060601FC004B0105060601FC004F019F
:1019900005050601FC00530105050601FC00570181
:1019A00005070601FA005C0105050601FC0060015F
:1019B00005050601FC00640105050601FC0068013F
:1019C00005050601FC006C0105060601FC0070011E
:1019D00005050601FC00740105070601FA007901FE
:1019E00001080603FA007A0105070601FA007F01E3
:1019F00005020601FA00FAB68052BEAFA94023E8FC
:101A0000E2F880C644444C6045288AC9A0E02A48D0
:101A1000888892A0255C475480213E420058F88077
:101A20000888880074675CC5C05924B87442644350
:101A3000E0F84460C5C011952F8840FC3C10C5C03B
:101A40003A21E8C5C0F8444421007462E8C5C07476
:101A500062F08B80A0458012484210F83E84212419
:101A6000807444420080746B7B41E022A31FC62037
:101A7000F463E8C7C074610845C0F46318C7C0FCCC
:101A800021E843E0FC21E842007C2109C5E08C63A9
:101A9000F8C620E924B8084210C5C08CA98A4A209B
:101AA00084210843E08EEB58C6208C7359C62074FD
:101AB0006318C5C0F463E8420074631AC9A0F463F4
:101AC000EA4A207460E0C5C0F9084210808C6318AF
:101AD000C5C08C6318A8808C635AEE208C54454690
:101AE000208C54421080F8444443E0FE318C63E083
:101AF00082082080F8C6318FE022A2FE8880705FC5
:101B00001780843D18C7C07C210780085F18C5E096
:101B1000747F07803251E421007462F0B8843D186C
:101B2000C6204324B81031119684232E4A20C9249C
:101B3000B8DD6B5880F463188074631700F463E8B1
:101B4000407C62F084BE2108007C1C1F00423C8463
:101B500024C08C6336808C62A2008C6B5D808A8886
:101B6000A8808C62F0B8F8888F803B198630E0FF3F
:101B7000E18C331B806D8000F6190000FE1600001A
:101B8000207E08005C15000064120000207E060024
:101B9000541C00009C1B0000D41B000037666C69BD
:101BA00070646F740000000000000000901B0000D3
:101BB000AB030000D50400002D060000470600001E
:101BC000BF0500005F0600009F060000A50300009F
:101BD000FD070000B01C0000DC1B00003132416436
:101BE0006166727569745F47465800000000000026
:101BF000D41B0000CF080000D50400002D06000013
:101C000047060000BF0500005F0600009F060000B9
:101C1000B9060000FD070000541C0000241C000051
:101C2000781C00004E31305F5F63787861626976BE
:101C30003132305F5F73695F636C6173735F7479B6
:101C400070655F696E666F4500000000000000006F
:101C5000181C0000ED08000005090000D70A00006C
:101C6000D70A0000770A0000F1090000CF09000040
:101C70004B09000019090000541C0000841C0000DE
:101C8000D41C00004E31305F5F6378786162697602
:101C90003131375F5F636C6173735F747970655F57
:101CA000696E666F4500000000000000781C0000AF
:101CB000310A0000490A0000D70A0000D70A0000D4
:101CC000770A0000F10900005D0A00009B0A00008D
:101CD000250A0000B01C0000DC1C0000537439749D
:101CE0007970655F696E666F00000000F8B5C046E8
:101CF000F8BC08BC9E467047B5000000BD0100005E
:101D0000F8B5C046F8BC08BC9E4670478D00000080
:101D100015000000310000009510000010000020A8
:101D200000000000000000000000000000000000B3
:101D300000000000000000000000000000000000A3
:101D40000000000000000000000000000000000093
:101D50000000000000000000000000000000000083
:101D60000000000000000000000000000000000073
:101D70000000000000000000000000000000000063
:00000001FF
